{
    "_format": "hh-sol-artifact-1",
    "contractName": "MyEpicNFT",
    "sourceName": "contracts/MyEpicNFT.sol",
    "abi": [
        {
            "inputs": [
                {
                    "internalType": "uint256",
                    "name": "_totalSupply",
                    "type": "uint256"
                }
            ],
            "stateMutability": "nonpayable",
            "type": "constructor"
        },
        {
            "anonymous": false,
            "inputs": [
                {
                    "indexed": true,
                    "internalType": "address",
                    "name": "owner",
                    "type": "address"
                },
                {
                    "indexed": true,
                    "internalType": "address",
                    "name": "approved",
                    "type": "address"
                },
                {
                    "indexed": true,
                    "internalType": "uint256",
                    "name": "tokenId",
                    "type": "uint256"
                }
            ],
            "name": "Approval",
            "type": "event"
        },
        {
            "anonymous": false,
            "inputs": [
                {
                    "indexed": true,
                    "internalType": "address",
                    "name": "owner",
                    "type": "address"
                },
                {
                    "indexed": true,
                    "internalType": "address",
                    "name": "operator",
                    "type": "address"
                },
                {
                    "indexed": false,
                    "internalType": "bool",
                    "name": "approved",
                    "type": "bool"
                }
            ],
            "name": "ApprovalForAll",
            "type": "event"
        },
        {
            "anonymous": false,
            "inputs": [
                {
                    "indexed": false,
                    "internalType": "address",
                    "name": "sender",
                    "type": "address"
                },
                {
                    "indexed": false,
                    "internalType": "uint256",
                    "name": "tokenId",
                    "type": "uint256"
                }
            ],
            "name": "NewEpicNFTMinted",
            "type": "event"
        },
        {
            "anonymous": false,
            "inputs": [
                {
                    "indexed": true,
                    "internalType": "address",
                    "name": "from",
                    "type": "address"
                },
                {
                    "indexed": true,
                    "internalType": "address",
                    "name": "to",
                    "type": "address"
                },
                {
                    "indexed": true,
                    "internalType": "uint256",
                    "name": "tokenId",
                    "type": "uint256"
                }
            ],
            "name": "Transfer",
            "type": "event"
        },
        {
            "inputs": [
                {
                    "internalType": "address",
                    "name": "to",
                    "type": "address"
                },
                {
                    "internalType": "uint256",
                    "name": "tokenId",
                    "type": "uint256"
                }
            ],
            "name": "approve",
            "outputs": [],
            "stateMutability": "nonpayable",
            "type": "function"
        },
        {
            "inputs": [
                {
                    "internalType": "address",
                    "name": "owner",
                    "type": "address"
                }
            ],
            "name": "balanceOf",
            "outputs": [
                {
                    "internalType": "uint256",
                    "name": "",
                    "type": "uint256"
                }
            ],
            "stateMutability": "view",
            "type": "function"
        },
        {
            "inputs": [
                {
                    "internalType": "uint256",
                    "name": "tokenId",
                    "type": "uint256"
                }
            ],
            "name": "getApproved",
            "outputs": [
                {
                    "internalType": "address",
                    "name": "",
                    "type": "address"
                }
            ],
            "stateMutability": "view",
            "type": "function"
        },
        {
            "inputs": [],
            "name": "getTotalNFTsMintedSoFar",
            "outputs": [
                {
                    "internalType": "uint256",
                    "name": "",
                    "type": "uint256"
                }
            ],
            "stateMutability": "view",
            "type": "function"
        },
        {
            "inputs": [
                {
                    "internalType": "address",
                    "name": "owner",
                    "type": "address"
                },
                {
                    "internalType": "address",
                    "name": "operator",
                    "type": "address"
                }
            ],
            "name": "isApprovedForAll",
            "outputs": [
                {
                    "internalType": "bool",
                    "name": "",
                    "type": "bool"
                }
            ],
            "stateMutability": "view",
            "type": "function"
        },
        {
            "inputs": [],
            "name": "makeAnEpicNFT",
            "outputs": [],
            "stateMutability": "nonpayable",
            "type": "function"
        },
        {
            "inputs": [],
            "name": "name",
            "outputs": [
                {
                    "internalType": "string",
                    "name": "",
                    "type": "string"
                }
            ],
            "stateMutability": "view",
            "type": "function"
        },
        {
            "inputs": [
                {
                    "internalType": "uint256",
                    "name": "tokenId",
                    "type": "uint256"
                }
            ],
            "name": "ownerOf",
            "outputs": [
                {
                    "internalType": "address",
                    "name": "",
                    "type": "address"
                }
            ],
            "stateMutability": "view",
            "type": "function"
        },
        {
            "inputs": [
                {
                    "internalType": "uint256",
                    "name": "tokenId",
                    "type": "uint256"
                }
            ],
            "name": "pickRandomColor",
            "outputs": [
                {
                    "internalType": "string",
                    "name": "",
                    "type": "string"
                }
            ],
            "stateMutability": "view",
            "type": "function"
        },
        {
            "inputs": [
                {
                    "internalType": "uint256",
                    "name": "tokenId",
                    "type": "uint256"
                }
            ],
            "name": "pickRandomFirstWord",
            "outputs": [
                {
                    "internalType": "string",
                    "name": "",
                    "type": "string"
                }
            ],
            "stateMutability": "view",
            "type": "function"
        },
        {
            "inputs": [
                {
                    "internalType": "uint256",
                    "name": "tokenId",
                    "type": "uint256"
                }
            ],
            "name": "pickRandomSecondWord",
            "outputs": [
                {
                    "internalType": "string",
                    "name": "",
                    "type": "string"
                }
            ],
            "stateMutability": "view",
            "type": "function"
        },
        {
            "inputs": [
                {
                    "internalType": "address",
                    "name": "from",
                    "type": "address"
                },
                {
                    "internalType": "address",
                    "name": "to",
                    "type": "address"
                },
                {
                    "internalType": "uint256",
                    "name": "tokenId",
                    "type": "uint256"
                }
            ],
            "name": "safeTransferFrom",
            "outputs": [],
            "stateMutability": "nonpayable",
            "type": "function"
        },
        {
            "inputs": [
                {
                    "internalType": "address",
                    "name": "from",
                    "type": "address"
                },
                {
                    "internalType": "address",
                    "name": "to",
                    "type": "address"
                },
                {
                    "internalType": "uint256",
                    "name": "tokenId",
                    "type": "uint256"
                },
                {
                    "internalType": "bytes",
                    "name": "_data",
                    "type": "bytes"
                }
            ],
            "name": "safeTransferFrom",
            "outputs": [],
            "stateMutability": "nonpayable",
            "type": "function"
        },
        {
            "inputs": [
                {
                    "internalType": "address",
                    "name": "operator",
                    "type": "address"
                },
                {
                    "internalType": "bool",
                    "name": "approved",
                    "type": "bool"
                }
            ],
            "name": "setApprovalForAll",
            "outputs": [],
            "stateMutability": "nonpayable",
            "type": "function"
        },
        {
            "inputs": [
                {
                    "internalType": "bytes4",
                    "name": "interfaceId",
                    "type": "bytes4"
                }
            ],
            "name": "supportsInterface",
            "outputs": [
                {
                    "internalType": "bool",
                    "name": "",
                    "type": "bool"
                }
            ],
            "stateMutability": "view",
            "type": "function"
        },
        {
            "inputs": [],
            "name": "symbol",
            "outputs": [
                {
                    "internalType": "string",
                    "name": "",
                    "type": "string"
                }
            ],
            "stateMutability": "view",
            "type": "function"
        },
        {
            "inputs": [
                {
                    "internalType": "uint256",
                    "name": "tokenId",
                    "type": "uint256"
                }
            ],
            "name": "tokenURI",
            "outputs": [
                {
                    "internalType": "string",
                    "name": "",
                    "type": "string"
                }
            ],
            "stateMutability": "view",
            "type": "function"
        },
        {
            "inputs": [],
            "name": "totalSupply",
            "outputs": [
                {
                    "internalType": "uint256",
                    "name": "",
                    "type": "uint256"
                }
            ],
            "stateMutability": "view",
            "type": "function"
        },
        {
            "inputs": [
                {
                    "internalType": "address",
                    "name": "from",
                    "type": "address"
                },
                {
                    "internalType": "address",
                    "name": "to",
                    "type": "address"
                },
                {
                    "internalType": "uint256",
                    "name": "tokenId",
                    "type": "uint256"
                }
            ],
            "name": "transferFrom",
            "outputs": [],
            "stateMutability": "nonpayable",
            "type": "function"
        }
    ],
    "bytecode": "0x608060405260405180610100016040528060d381526020016200432f60d391396009908051906020019062000036929190620005ef565b506040518060800160405280605681526020016200440260569139600a908051906020019062000068929190620005ef565b5060405180608001604052806040518060400160405280600281526020017f5a5a00000000000000000000000000000000000000000000000000000000000081525081526020016040518060400160405280600281526020017f445000000000000000000000000000000000000000000000000000000000000081525081526020016040518060400160405280600281526020017f524b00000000000000000000000000000000000000000000000000000000000081525081526020016040518060400160405280600281526020017f4d46000000000000000000000000000000000000000000000000000000000000815250815250600b9060046200017092919062000680565b5060405180608001604052806040518060400160405280600581526020017f344c69666500000000000000000000000000000000000000000000000000000081525081526020016040518060400160405280600781526020017f466f72657665720000000000000000000000000000000000000000000000000081525081526020016040518060400160405280600981526020017f416c6c416363657373000000000000000000000000000000000000000000000081525081526020016040518060400160405280600881526020017f496e66696e697465000000000000000000000000000000000000000000000000815250815250600c9060046200027892919062000680565b506040518060c001604052806040518060400160405280600381526020017f726564000000000000000000000000000000000000000000000000000000000081525081526020016040518060400160405280600781526020017f233038433241380000000000000000000000000000000000000000000000000081525081526020016040518060400160405280600581526020017f626c61636b00000000000000000000000000000000000000000000000000000081525081526020016040518060400160405280600681526020017f79656c6c6f77000000000000000000000000000000000000000000000000000081525081526020016040518060400160405280600481526020017f626c75650000000000000000000000000000000000000000000000000000000081525081526020016040518060400160405280600581526020017f677265656e000000000000000000000000000000000000000000000000000000815250815250600d906006620003f6929190620006e7565b503480156200040457600080fd5b50604051620044583803806200445883398181016040528101906200042a9190620007f2565b6040518060400160405280600881526020017f44656d6f204e46540000000000000000000000000000000000000000000000008152506040518060400160405280600481526020017f54464c58000000000000000000000000000000000000000000000000000000008152508160009080519060200190620004ae929190620005ef565b508060019080519060200190620004c7929190620005ef565b505050620005156040518060400160405280601c81526020017f546869732069732073686f7763617365204e46542050726f6a656374000000008152506200052360201b620011201760201c565b80600881905550506200096f565b620005c3816040516024016200053a91906200085f565b6040516020818303038152906040527f41304fac000000000000000000000000000000000000000000000000000000007bffffffffffffffffffffffffffffffffffffffffffffffffffffffff19166020820180517bffffffffffffffffffffffffffffffffffffffffffffffffffffffff8381831617835250505050620005c660201b60201c565b50565b60008151905060006a636f6e736f6c652e6c6f679050602083016000808483855afa5050505050565b828054620005fd90620008df565b90600052602060002090601f0160209004810192826200062157600085556200066d565b82601f106200063c57805160ff19168380011785556200066d565b828001600101855582156200066d579182015b828111156200066c5782518255916020019190600101906200064f565b5b5090506200067c91906200074e565b5090565b828054828255906000526020600020908101928215620006d4579160200282015b82811115620006d3578251829080519060200190620006c2929190620005ef565b5091602001919060010190620006a1565b5b509050620006e391906200076d565b5090565b8280548282559060005260206000209081019282156200073b579160200282015b828111156200073a57825182908051906020019062000729929190620005ef565b509160200191906001019062000708565b5b5090506200074a91906200076d565b5090565b5b80821115620007695760008160009055506001016200074f565b5090565b5b8082111562000791576000818162000787919062000795565b506001016200076e565b5090565b508054620007a390620008df565b6000825580601f10620007b75750620007d8565b601f016020900490600052602060002090810190620007d791906200074e565b5b50565b600081519050620007ec8162000955565b92915050565b6000602082840312156200080557600080fd5b60006200081584828501620007db565b91505092915050565b60006200082b8262000883565b6200083781856200088e565b935062000849818560208601620008a9565b620008548162000944565b840191505092915050565b600060208201905081810360008301526200087b81846200081e565b905092915050565b600081519050919050565b600082825260208201905092915050565b6000819050919050565b60005b83811015620008c9578082015181840152602081019050620008ac565b83811115620008d9576000848401525b50505050565b60006002820490506001821680620008f857607f821691505b602082108114156200090f576200090e62000915565b5b50919050565b7f4e487b7100000000000000000000000000000000000000000000000000000000600052602260045260246000fd5b6000601f19601f8301169050919050565b62000960816200089f565b81146200096c57600080fd5b50565b6139b0806200097f6000396000f3fe608060405234801561001057600080fd5b50600436106101215760003560e01c8063514dc8c6116100ad578063b187301f11610071578063b187301f1461032e578063b88d4fde1461035e578063c87b56dd1461037a578063de9d132f146103aa578063e985e9c5146103b457610121565b8063514dc8c6146102645780636352211e1461029457806370a08231146102c457806395d89b41146102f4578063a22cb4651461031257610121565b8063095ea7b3116100f4578063095ea7b3146101c257806318160ddd146101de57806323b872dd146101fc5780632de38d681461021857806342842e0e1461024857610121565b806301ffc9a714610126578063060475901461015657806306fdde0314610174578063081812fc14610192575b600080fd5b610140600480360381019061013b9190612501565b6103e4565b60405161014d9190613206565b60405180910390f35b61015e6104c6565b60405161016b91906134a1565b60405180910390f35b61017c6104d7565b6040516101899190613221565b60405180910390f35b6101ac60048036038101906101a79190612553565b610569565b6040516101b99190613176565b60405180910390f35b6101dc60048036038101906101d791906124c5565b6105ee565b005b6101e6610706565b6040516101f391906134a1565b60405180910390f35b610216600480360381019061021191906123bf565b61070c565b005b610232600480360381019061022d9190612553565b61076c565b60405161023f9190613221565b60405180910390f35b610262600480360381019061025d91906123bf565b61088a565b005b61027e60048036038101906102799190612553565b6108aa565b60405161028b9190613221565b60405180910390f35b6102ae60048036038101906102a99190612553565b6109c8565b6040516102bb9190613176565b60405180910390f35b6102de60048036038101906102d9919061235a565b610a7a565b6040516102eb91906134a1565b60405180910390f35b6102fc610b32565b6040516103099190613221565b60405180910390f35b61032c60048036038101906103279190612489565b610bc4565b005b61034860048036038101906103439190612553565b610bda565b6040516103559190613221565b60405180910390f35b6103786004803603810190610373919061240e565b610cf8565b005b610394600480360381019061038f9190612553565b610d5a565b6040516103a19190613221565b60405180910390f35b6103b2610eac565b005b6103ce60048036038101906103c99190612383565b61108c565b6040516103db9190613206565b60405180910390f35b60007f80ac58cd000000000000000000000000000000000000000000000000000000007bffffffffffffffffffffffffffffffffffffffffffffffffffffffff1916827bffffffffffffffffffffffffffffffffffffffffffffffffffffffff191614806104af57507f5b5e139f000000000000000000000000000000000000000000000000000000007bffffffffffffffffffffffffffffffffffffffffffffffffffffffff1916827bffffffffffffffffffffffffffffffffffffffffffffffffffffffff1916145b806104bf57506104be826111b9565b5b9050919050565b60006104d26007611223565b905090565b6060600080546104e690613740565b80601f016020809104026020016040519081016040528092919081815260200182805461051290613740565b801561055f5780601f106105345761010080835404028352916020019161055f565b820191906000526020600020905b81548152906001019060200180831161054257829003601f168201915b5050505050905090565b600061057482611231565b6105b3576040517f08c379a00000000000000000000000000000000000000000000000000000000081526004016105aa90613401565b60405180910390fd5b6004600083815260200190815260200160002060009054906101000a900473ffffffffffffffffffffffffffffffffffffffff169050919050565b60006105f9826109c8565b90508073ffffffffffffffffffffffffffffffffffffffff168373ffffffffffffffffffffffffffffffffffffffff16141561066a576040517f08c379a000000000000000000000000000000000000000000000000000000000815260040161066190613461565b60405180910390fd5b8073ffffffffffffffffffffffffffffffffffffffff1661068961129d565b73ffffffffffffffffffffffffffffffffffffffff1614806106b857506106b7816106b261129d565b61108c565b5b6106f7576040517f08c379a00000000000000000000000000000000000000000000000000000000081526004016106ee90613321565b60405180910390fd5b61070183836112a5565b505050565b60085481565b61071d61071761129d565b8261135e565b61075c576040517f08c379a000000000000000000000000000000000000000000000000000000000815260040161075390613481565b60405180910390fd5b61076783838361143c565b505050565b606060006107a061077c84611698565b60405160200161078c9190613110565b604051602081830303815290604052611845565b9050600b80549050816107b391906137bb565b9050600b81815481106107ef577f4e487b7100000000000000000000000000000000000000000000000000000000600052603260045260246000fd5b90600052602060002001805461080490613740565b80601f016020809104026020016040519081016040528092919081815260200182805461083090613740565b801561087d5780601f106108525761010080835404028352916020019161087d565b820191906000526020600020905b81548152906001019060200180831161086057829003601f168201915b5050505050915050919050565b6108a583838360405180602001604052806000815250610cf8565b505050565b606060006108de6108ba84611698565b6040516020016108ca9190613154565b604051602081830303815290604052611845565b9050600d80549050816108f191906137bb565b9050600d818154811061092d577f4e487b7100000000000000000000000000000000000000000000000000000000600052603260045260246000fd5b90600052602060002001805461094290613740565b80601f016020809104026020016040519081016040528092919081815260200182805461096e90613740565b80156109bb5780601f10610990576101008083540402835291602001916109bb565b820191906000526020600020905b81548152906001019060200180831161099e57829003601f168201915b5050505050915050919050565b6000806002600084815260200190815260200160002060009054906101000a900473ffffffffffffffffffffffffffffffffffffffff169050600073ffffffffffffffffffffffffffffffffffffffff168173ffffffffffffffffffffffffffffffffffffffff161415610a71576040517f08c379a0000000000000000000000000000000000000000000000000000000008152600401610a6890613361565b60405180910390fd5b80915050919050565b60008073ffffffffffffffffffffffffffffffffffffffff168273ffffffffffffffffffffffffffffffffffffffff161415610aeb576040517f08c379a0000000000000000000000000000000000000000000000000000000008152600401610ae290613341565b60405180910390fd5b600360008373ffffffffffffffffffffffffffffffffffffffff1673ffffffffffffffffffffffffffffffffffffffff168152602001908152602001600020549050919050565b606060018054610b4190613740565b80601f0160208091040260200160405190810160405280929190818152602001828054610b6d90613740565b8015610bba5780601f10610b8f57610100808354040283529160200191610bba565b820191906000526020600020905b815481529060010190602001808311610b9d57829003601f168201915b5050505050905090565b610bd6610bcf61129d565b8383611878565b5050565b60606000610c0e610bea84611698565b604051602001610bfa91906130ab565b604051602081830303815290604052611845565b9050600c8054905081610c2191906137bb565b9050600c8181548110610c5d577f4e487b7100000000000000000000000000000000000000000000000000000000600052603260045260246000fd5b906000526020600020018054610c7290613740565b80601f0160208091040260200160405190810160405280929190818152602001828054610c9e90613740565b8015610ceb5780601f10610cc057610100808354040283529160200191610ceb565b820191906000526020600020905b815481529060010190602001808311610cce57829003601f168201915b5050505050915050919050565b610d09610d0361129d565b8361135e565b610d48576040517f08c379a0000000000000000000000000000000000000000000000000000000008152600401610d3f90613481565b60405180910390fd5b610d54848484846119e5565b50505050565b6060610d6582611231565b610da4576040517f08c379a0000000000000000000000000000000000000000000000000000000008152600401610d9b906133e1565b60405180910390fd5b6000600660008481526020019081526020016000208054610dc490613740565b80601f0160208091040260200160405190810160405280929190818152602001828054610df090613740565b8015610e3d5780601f10610e1257610100808354040283529160200191610e3d565b820191906000526020600020905b815481529060010190602001808311610e2057829003601f168201915b505050505090506000610e4e611a41565b9050600081511415610e64578192505050610ea7565b600082511115610e99578082604051602001610e81929190613042565b60405160208183030381529060405292505050610ea7565b610ea284611a58565b925050505b919050565b610eb66007611223565b60085411610ef9576040517f08c379a0000000000000000000000000000000000000000000000000000000008152600401610ef0906133a1565b60405180910390fd5b6000610f056007611223565b905060006009600a604051602001610f1e929190613066565b60405160208183030381529060405290506000610f61610f3d83611aff565b604051602001610f4d91906130cd565b604051602081830303815290604052611aff565b9050600081604051602001610f769190613132565b6040516020818303038152906040529050610fc56040518060400160405280601581526020017f0a2d2d2d2d2d2d2d2d2d2d2d2d2d2d2d2d2d2d2d2d0000000000000000000000815250611120565b610fce81611120565b61100c6040518060400160405280601581526020017f2d2d2d2d2d2d2d2d2d2d2d2d2d2d2d2d2d2d2d2d0a0000000000000000000000815250611120565b6110163385611c9e565b6110208482611cbc565b61102a6007611d30565b61104d604051806060016040528060258152602001613916602591398533611d46565b7febb98688741ffa4c7589bf325de30cf7becb63de567842e1ccdb6cb949fdc82c338560405161107e9291906131dd565b60405180910390a150505050565b6000600560008473ffffffffffffffffffffffffffffffffffffffff1673ffffffffffffffffffffffffffffffffffffffff16815260200190815260200160002060008373ffffffffffffffffffffffffffffffffffffffff1673ffffffffffffffffffffffffffffffffffffffff16815260200190815260200160002060009054906101000a900460ff16905092915050565b6111b6816040516024016111349190613221565b6040516020818303038152906040527f41304fac000000000000000000000000000000000000000000000000000000007bffffffffffffffffffffffffffffffffffffffffffffffffffffffff19166020820180517bffffffffffffffffffffffffffffffffffffffffffffffffffffffff8381831617835250505050611de5565b50565b60007f01ffc9a7000000000000000000000000000000000000000000000000000000007bffffffffffffffffffffffffffffffffffffffffffffffffffffffff1916827bffffffffffffffffffffffffffffffffffffffffffffffffffffffff1916149050919050565b600081600001549050919050565b60008073ffffffffffffffffffffffffffffffffffffffff166002600084815260200190815260200160002060009054906101000a900473ffffffffffffffffffffffffffffffffffffffff1673ffffffffffffffffffffffffffffffffffffffff1614159050919050565b600033905090565b816004600083815260200190815260200160002060006101000a81548173ffffffffffffffffffffffffffffffffffffffff021916908373ffffffffffffffffffffffffffffffffffffffff160217905550808273ffffffffffffffffffffffffffffffffffffffff16611318836109c8565b73ffffffffffffffffffffffffffffffffffffffff167f8c5be1e5ebec7d5bd14f71427d1e84f3dd0314c0f7b2291e5b200ac8c7c3b92560405160405180910390a45050565b600061136982611231565b6113a8576040517f08c379a000000000000000000000000000000000000000000000000000000000815260040161139f90613301565b60405180910390fd5b60006113b3836109c8565b90508073ffffffffffffffffffffffffffffffffffffffff168473ffffffffffffffffffffffffffffffffffffffff16148061142257508373ffffffffffffffffffffffffffffffffffffffff1661140a84610569565b73ffffffffffffffffffffffffffffffffffffffff16145b806114335750611432818561108c565b5b91505092915050565b8273ffffffffffffffffffffffffffffffffffffffff1661145c826109c8565b73ffffffffffffffffffffffffffffffffffffffff16146114b2576040517f08c379a00000000000000000000000000000000000000000000000000000000081526004016114a990613421565b60405180910390fd5b600073ffffffffffffffffffffffffffffffffffffffff168273ffffffffffffffffffffffffffffffffffffffff161415611522576040517f08c379a0000000000000000000000000000000000000000000000000000000008152600401611519906132c1565b60405180910390fd5b61152d838383611e0e565b6115386000826112a5565b6001600360008573ffffffffffffffffffffffffffffffffffffffff1673ffffffffffffffffffffffffffffffffffffffff16815260200190815260200160002060008282546115889190613656565b925050819055506001600360008473ffffffffffffffffffffffffffffffffffffffff1673ffffffffffffffffffffffffffffffffffffffff16815260200190815260200160002060008282546115df9190613575565b92505081905550816002600083815260200190815260200160002060006101000a81548173ffffffffffffffffffffffffffffffffffffffff021916908373ffffffffffffffffffffffffffffffffffffffff160217905550808273ffffffffffffffffffffffffffffffffffffffff168473ffffffffffffffffffffffffffffffffffffffff167fddf252ad1be2c89b69c2b068fc378daa952ba7f163c4a11628f55a4df523b3ef60405160405180910390a4505050565b606060008214156116e0576040518060400160405280600181526020017f30000000000000000000000000000000000000000000000000000000000000008152509050611840565b600082905060005b600082146117125780806116fb90613772565b915050600a8261170b91906135cb565b91506116e8565b60008167ffffffffffffffff811115611754577f4e487b7100000000000000000000000000000000000000000000000000000000600052604160045260246000fd5b6040519080825280601f01601f1916602001820160405280156117865781602001600182028036833780820191505090505b5090505b600085146118395760018261179f9190613656565b9150600a856117ae91906137bb565b60306117ba9190613575565b60f81b8183815181106117f6577f4e487b7100000000000000000000000000000000000000000000000000000000600052603260045260246000fd5b60200101907effffffffffffffffffffffffffffffffffffffffffffffffffffffffffffff1916908160001a905350600a8561183291906135cb565b945061178a565b8093505050505b919050565b600081604051602001611858919061302b565b6040516020818303038152906040528051906020012060001c9050919050565b8173ffffffffffffffffffffffffffffffffffffffff168373ffffffffffffffffffffffffffffffffffffffff1614156118e7576040517f08c379a00000000000000000000000000000000000000000000000000000000081526004016118de906132e1565b60405180910390fd5b80600560008573ffffffffffffffffffffffffffffffffffffffff1673ffffffffffffffffffffffffffffffffffffffff16815260200190815260200160002060008473ffffffffffffffffffffffffffffffffffffffff1673ffffffffffffffffffffffffffffffffffffffff16815260200190815260200160002060006101000a81548160ff0219169083151502179055508173ffffffffffffffffffffffffffffffffffffffff168373ffffffffffffffffffffffffffffffffffffffff167f17307eab39ab6107e8899845ad3d59bd9653f200f220920489ca2b5937696c31836040516119d89190613206565b60405180910390a3505050565b6119f084848461143c565b6119fc84848484611e13565b611a3b576040517f08c379a0000000000000000000000000000000000000000000000000000000008152600401611a3290613281565b60405180910390fd5b50505050565b606060405180602001604052806000815250905090565b6060611a6382611231565b611aa2576040517f08c379a0000000000000000000000000000000000000000000000000000000008152600401611a9990613441565b60405180910390fd5b6000611aac611a41565b90506000815111611acc5760405180602001604052806000815250611af7565b80611ad684611698565b604051602001611ae7929190613042565b6040516020818303038152906040525b915050919050565b6060600082511415611b2257604051806020016040528060008152509050611c99565b600060405180606001604052806040815260200161393b6040913990506000600360028551611b519190613575565b611b5b91906135cb565b6004611b6791906135fc565b90506000602082611b789190613575565b67ffffffffffffffff811115611bb7577f4e487b7100000000000000000000000000000000000000000000000000000000600052604160045260246000fd5b6040519080825280601f01601f191660200182016040528015611be95781602001600182028036833780820191505090505b509050818152600183018586518101602084015b81831015611c58576003830192508251603f8160121c168501518253600182019150603f81600c1c168501518253600182019150603f8160061c168501518253600182019150603f8116850151825360018201915050611bfd565b600389510660018114611c725760028114611c8257611c8d565b613d3d60f01b6002830352611c8d565b603d60f81b60018303525b50505050508093505050505b919050565b611cb8828260405180602001604052806000815250611faa565b5050565b611cc582611231565b611d04576040517f08c379a0000000000000000000000000000000000000000000000000000000008152600401611cfb90613381565b60405180910390fd5b80600660008481526020019081526020016000209080519060200190611d2b9291906121e6565b505050565b6001816000016000828254019250508190555050565b611de0838383604051602401611d5e93929190613243565b6040516020818303038152906040527fe3849f79000000000000000000000000000000000000000000000000000000007bffffffffffffffffffffffffffffffffffffffffffffffffffffffff19166020820180517bffffffffffffffffffffffffffffffffffffffffffffffffffffffff8381831617835250505050611de5565b505050565b60008151905060006a636f6e736f6c652e6c6f679050602083016000808483855afa5050505050565b505050565b6000611e348473ffffffffffffffffffffffffffffffffffffffff16612005565b15611f9d578373ffffffffffffffffffffffffffffffffffffffff1663150b7a02611e5d61129d565b8786866040518563ffffffff1660e01b8152600401611e7f9493929190613191565b602060405180830381600087803b158015611e9957600080fd5b505af1925050508015611eca57506040513d601f19601f82011682018060405250810190611ec7919061252a565b60015b611f4d573d8060008114611efa576040519150601f19603f3d011682016040523d82523d6000602084013e611eff565b606091505b50600081511415611f45576040517f08c379a0000000000000000000000000000000000000000000000000000000008152600401611f3c90613281565b60405180910390fd5b805181602001fd5b63150b7a0260e01b7bffffffffffffffffffffffffffffffffffffffffffffffffffffffff1916817bffffffffffffffffffffffffffffffffffffffffffffffffffffffff191614915050611fa2565b600190505b949350505050565b611fb48383612018565b611fc16000848484611e13565b612000576040517f08c379a0000000000000000000000000000000000000000000000000000000008152600401611ff790613281565b60405180910390fd5b505050565b600080823b905060008111915050919050565b600073ffffffffffffffffffffffffffffffffffffffff168273ffffffffffffffffffffffffffffffffffffffff161415612088576040517f08c379a000000000000000000000000000000000000000000000000000000000815260040161207f906133c1565b60405180910390fd5b61209181611231565b156120d1576040517f08c379a00000000000000000000000000000000000000000000000000000000081526004016120c8906132a1565b60405180910390fd5b6120dd60008383611e0e565b6001600360008473ffffffffffffffffffffffffffffffffffffffff1673ffffffffffffffffffffffffffffffffffffffff168152602001908152602001600020600082825461212d9190613575565b92505081905550816002600083815260200190815260200160002060006101000a81548173ffffffffffffffffffffffffffffffffffffffff021916908373ffffffffffffffffffffffffffffffffffffffff160217905550808273ffffffffffffffffffffffffffffffffffffffff16600073ffffffffffffffffffffffffffffffffffffffff167fddf252ad1be2c89b69c2b068fc378daa952ba7f163c4a11628f55a4df523b3ef60405160405180910390a45050565b8280546121f290613740565b90600052602060002090601f016020900481019282612214576000855561225b565b82601f1061222d57805160ff191683800117855561225b565b8280016001018555821561225b579182015b8281111561225a57825182559160200191906001019061223f565b5b509050612268919061226c565b5090565b5b8082111561228557600081600090555060010161226d565b5090565b600061229c612297846134ed565b6134bc565b9050828152602081018484840111156122b457600080fd5b6122bf8482856136fe565b509392505050565b6000813590506122d6816138b9565b92915050565b6000813590506122eb816138d0565b92915050565b600081359050612300816138e7565b92915050565b600081519050612315816138e7565b92915050565b600082601f83011261232c57600080fd5b813561233c848260208601612289565b91505092915050565b600081359050612354816138fe565b92915050565b60006020828403121561236c57600080fd5b600061237a848285016122c7565b91505092915050565b6000806040838503121561239657600080fd5b60006123a4858286016122c7565b92505060206123b5858286016122c7565b9150509250929050565b6000806000606084860312156123d457600080fd5b60006123e2868287016122c7565b93505060206123f3868287016122c7565b925050604061240486828701612345565b9150509250925092565b6000806000806080858703121561242457600080fd5b6000612432878288016122c7565b9450506020612443878288016122c7565b935050604061245487828801612345565b925050606085013567ffffffffffffffff81111561247157600080fd5b61247d8782880161231b565b91505092959194509250565b6000806040838503121561249c57600080fd5b60006124aa858286016122c7565b92505060206124bb858286016122dc565b9150509250929050565b600080604083850312156124d857600080fd5b60006124e6858286016122c7565b92505060206124f785828601612345565b9150509250929050565b60006020828403121561251357600080fd5b6000612521848285016122f1565b91505092915050565b60006020828403121561253c57600080fd5b600061254a84828501612306565b91505092915050565b60006020828403121561256557600080fd5b600061257384828501612345565b91505092915050565b6125858161368a565b82525050565b6125948161369c565b82525050565b60006125a582613532565b6125af8185613548565b93506125bf81856020860161370d565b6125c8816138a8565b840191505092915050565b60006125de8261353d565b6125e88185613559565b93506125f881856020860161370d565b612601816138a8565b840191505092915050565b60006126178261353d565b612621818561356a565b935061263181856020860161370d565b80840191505092915050565b6000815461264a81613740565b612654818661356a565b9450600182166000811461266f5760018114612680576126b3565b60ff198316865281860193506126b3565b6126898561351d565b60005b838110156126ab5781548189015260018201915060208101905061268c565b838801955050505b50505092915050565b60006126c9603283613559565b91507f4552433732313a207472616e7366657220746f206e6f6e20455243373231526560008301527f63656976657220696d706c656d656e74657200000000000000000000000000006020830152604082019050919050565b600061272f60168361356a565b91507f4d696e746564206f6e2074656b666c782e636f6d2020000000000000000000006000830152601682019050919050565b600061276f601c83613559565b91507f4552433732313a20746f6b656e20616c7265616479206d696e746564000000006000830152602082019050919050565b60006127af60198361356a565b91507f74656b666c782e636f6d2f746563682f776562332f64656d6f000000000000006000830152601982019050919050565b60006127ef602483613559565b91507f4552433732313a207472616e7366657220746f20746865207a65726f2061646460008301527f72657373000000000000000000000000000000000000000000000000000000006020830152604082019050919050565b6000612855601983613559565b91507f4552433732313a20617070726f766520746f2063616c6c6572000000000000006000830152602082019050919050565b6000612895600b8361356a565b91507f5345434f4e445f574f52440000000000000000000000000000000000000000006000830152600b82019050919050565b60006128d5602c83613559565b91507f4552433732313a206f70657261746f7220717565727920666f72206e6f6e657860008301527f697374656e7420746f6b656e00000000000000000000000000000000000000006020830152604082019050919050565b600061293b600d8361356a565b91507f3c2f746578743e3c2f7376673e000000000000000000000000000000000000006000830152600d82019050919050565b600061297b603883613559565b91507f4552433732313a20617070726f76652063616c6c6572206973206e6f74206f7760008301527f6e6572206e6f7220617070726f76656420666f7220616c6c00000000000000006020830152604082019050919050565b60006129e1602a83613559565b91507f4552433732313a2062616c616e636520717565727920666f7220746865207a6560008301527f726f2061646472657373000000000000000000000000000000000000000000006020830152604082019050919050565b6000612a47602983613559565b91507f4552433732313a206f776e657220717565727920666f72206e6f6e657869737460008301527f656e7420746f6b656e00000000000000000000000000000000000000000000006020830152604082019050919050565b6000612aad602e83613559565b91507f45524337323155524953746f726167653a2055524920736574206f66206e6f6e60008301527f6578697374656e7420746f6b656e0000000000000000000000000000000000006020830152604082019050919050565b6000612b13601983613559565b91507f416c6c204e6674732068617665206265656e206d696e746564000000000000006000830152602082019050919050565b6000612b5360028361356a565b91507f227d0000000000000000000000000000000000000000000000000000000000006000830152600282019050919050565b6000612b93602083613559565b91507f4552433732313a206d696e7420746f20746865207a65726f20616464726573736000830152602082019050919050565b6000612bd3603183613559565b91507f45524337323155524953746f726167653a2055524920717565727920666f722060008301527f6e6f6e6578697374656e7420746f6b656e0000000000000000000000000000006020830152604082019050919050565b6000612c3960698361356a565b91507f222c20226465736372697074696f6e223a2022412064656d6f204e465420667260008301527f6f6d207468652074656b666c782e636f6d2064656d6f204e46542070726f6a6560208301527f6374222c2022696d616765223a2022646174613a696d6167652f7376672b786d60408301527f6c3b6261736536342c00000000000000000000000000000000000000000000006060830152606982019050919050565b6000612ceb602c83613559565b91507f4552433732313a20617070726f76656420717565727920666f72206e6f6e657860008301527f697374656e7420746f6b656e00000000000000000000000000000000000000006020830152604082019050919050565b6000612d51602983613559565b91507f4552433732313a207472616e73666572206f6620746f6b656e2074686174206960008301527f73206e6f74206f776e00000000000000000000000000000000000000000000006020830152604082019050919050565b6000612db7602f83613559565b91507f4552433732314d657461646174613a2055524920717565727920666f72206e6f60008301527f6e6578697374656e7420746f6b656e00000000000000000000000000000000006020830152604082019050919050565b6000612e1d600a8361356a565b91507f7b226e616d65223a2022000000000000000000000000000000000000000000006000830152600a82019050919050565b6000612e5d602183613559565b91507f4552433732313a20617070726f76616c20746f2063757272656e74206f776e6560008301527f72000000000000000000000000000000000000000000000000000000000000006020830152604082019050919050565b6000612ec3600a8361356a565b91507f46495253545f574f5244000000000000000000000000000000000000000000006000830152600a82019050919050565b6000612f03601d8361356a565b91507f646174613a6170706c69636174696f6e2f6a736f6e3b6261736536342c0000006000830152601d82019050919050565b6000612f43603183613559565b91507f4552433732313a207472616e736665722063616c6c6572206973206e6f74206f60008301527f776e6572206e6f7220617070726f7665640000000000000000000000000000006020830152604082019050919050565b6000612fa960058361356a565b91507f626c61636b0000000000000000000000000000000000000000000000000000006000830152600582019050919050565b6000612fe960058361356a565b91507f434f4c4f520000000000000000000000000000000000000000000000000000006000830152600582019050919050565b613025816136f4565b82525050565b6000613037828461260c565b915081905092915050565b600061304e828561260c565b915061305a828461260c565b91508190509392505050565b6000613072828561263d565b915061307d82612f9c565b9150613089828461263d565b9150613094826127a2565b915061309f8261292e565b91508190509392505050565b60006130b682612888565b91506130c2828461260c565b915081905092915050565b60006130d882612e10565b91506130e382612722565b91506130ee82612c2c565b91506130fa828461260c565b915061310582612b46565b915081905092915050565b600061311b82612eb6565b9150613127828461260c565b915081905092915050565b600061313d82612ef6565b9150613149828461260c565b915081905092915050565b600061315f82612fdc565b915061316b828461260c565b915081905092915050565b600060208201905061318b600083018461257c565b92915050565b60006080820190506131a6600083018761257c565b6131b3602083018661257c565b6131c0604083018561301c565b81810360608301526131d2818461259a565b905095945050505050565b60006040820190506131f2600083018561257c565b6131ff602083018461301c565b9392505050565b600060208201905061321b600083018461258b565b92915050565b6000602082019050818103600083015261323b81846125d3565b905092915050565b6000606082019050818103600083015261325d81866125d3565b905061326c602083018561301c565b613279604083018461257c565b949350505050565b6000602082019050818103600083015261329a816126bc565b9050919050565b600060208201905081810360008301526132ba81612762565b9050919050565b600060208201905081810360008301526132da816127e2565b9050919050565b600060208201905081810360008301526132fa81612848565b9050919050565b6000602082019050818103600083015261331a816128c8565b9050919050565b6000602082019050818103600083015261333a8161296e565b9050919050565b6000602082019050818103600083015261335a816129d4565b9050919050565b6000602082019050818103600083015261337a81612a3a565b9050919050565b6000602082019050818103600083015261339a81612aa0565b9050919050565b600060208201905081810360008301526133ba81612b06565b9050919050565b600060208201905081810360008301526133da81612b86565b9050919050565b600060208201905081810360008301526133fa81612bc6565b9050919050565b6000602082019050818103600083015261341a81612cde565b9050919050565b6000602082019050818103600083015261343a81612d44565b9050919050565b6000602082019050818103600083015261345a81612daa565b9050919050565b6000602082019050818103600083015261347a81612e50565b9050919050565b6000602082019050818103600083015261349a81612f36565b9050919050565b60006020820190506134b6600083018461301c565b92915050565b6000604051905081810181811067ffffffffffffffff821117156134e3576134e2613879565b5b8060405250919050565b600067ffffffffffffffff82111561350857613507613879565b5b601f19601f8301169050602081019050919050565b60008190508160005260206000209050919050565b600081519050919050565b600081519050919050565b600082825260208201905092915050565b600082825260208201905092915050565b600081905092915050565b6000613580826136f4565b915061358b836136f4565b9250827fffffffffffffffffffffffffffffffffffffffffffffffffffffffffffffffff038211156135c0576135bf6137ec565b5b828201905092915050565b60006135d6826136f4565b91506135e1836136f4565b9250826135f1576135f061381b565b5b828204905092915050565b6000613607826136f4565b9150613612836136f4565b9250817fffffffffffffffffffffffffffffffffffffffffffffffffffffffffffffffff048311821515161561364b5761364a6137ec565b5b828202905092915050565b6000613661826136f4565b915061366c836136f4565b92508282101561367f5761367e6137ec565b5b828203905092915050565b6000613695826136d4565b9050919050565b60008115159050919050565b60007fffffffff0000000000000000000000000000000000000000000000000000000082169050919050565b600073ffffffffffffffffffffffffffffffffffffffff82169050919050565b6000819050919050565b82818337600083830152505050565b60005b8381101561372b578082015181840152602081019050613710565b8381111561373a576000848401525b50505050565b6000600282049050600182168061375857607f821691505b6020821081141561376c5761376b61384a565b5b50919050565b600061377d826136f4565b91507fffffffffffffffffffffffffffffffffffffffffffffffffffffffffffffffff8214156137b0576137af6137ec565b5b600182019050919050565b60006137c6826136f4565b91506137d1836136f4565b9250826137e1576137e061381b565b5b828206905092915050565b7f4e487b7100000000000000000000000000000000000000000000000000000000600052601160045260246000fd5b7f4e487b7100000000000000000000000000000000000000000000000000000000600052601260045260246000fd5b7f4e487b7100000000000000000000000000000000000000000000000000000000600052602260045260246000fd5b7f4e487b7100000000000000000000000000000000000000000000000000000000600052604160045260246000fd5b6000601f19601f8301169050919050565b6138c28161368a565b81146138cd57600080fd5b50565b6138d98161369c565b81146138e457600080fd5b50565b6138f0816136a8565b81146138fb57600080fd5b50565b613907816136f4565b811461391257600080fd5b5056fe416e204e465420772f20494420257320686173206265656e206d696e74656420746f2025734142434445464748494a4b4c4d4e4f505152535455565758595a6162636465666768696a6b6c6d6e6f707172737475767778797a303132333435363738392b2fa2646970667358221220fa5a27b5b46cab7ec9e1b1fe48b41a8984b4cc735d5acb00514655c71449966364736f6c634300080000333c73766720786d6c6e733d27687474703a2f2f7777772e77332e6f72672f323030302f73766727207072657365727665417370656374526174696f3d27784d696e594d696e206d656574272076696577426f783d273020302033353020333530273e3c7374796c653e2e62617365207b2066696c6c3a2077686974653b20666f6e742d66616d696c793a2073657269663b20666f6e742d73697a653a20323470783b207d3c2f7374796c653e3c726563742077696474683d273130302527206865696768743d2731303025272066696c6c3d27272f3e3c7465787420783d273530252720793d273530252720636c6173733d27626173652720646f6d696e616e742d626173656c696e653d276d6964646c652720746578742d616e63686f723d276d6964646c65273e",
    "linkReferences": {},
    "deployedLinkReferences": {}
}